:1000000046C2000065C2000063C2000061C2000079
:100010005FC200005DC200005BC2000059C2000068
:1000200057C2000055C2000053C2000051C2000078
:100030004FC200004DC2000062C500008DC5000027
:10004000B8C50000E3C500000EC6000039C60000B8
:1000500064C600008FC60000BAC60000E5C60000F6
:1000600037C2000035C2000033C2000031C20000B8
:100070002FC200002DC200002BC2000029C20000C8
:1000800027C2000025C2000023C2000021C20000D8
:100090001FC200001DC200001BC2000019C20000E8
:1000A00017C2000015C2000013C2000011C20000F8
:1000B0000FC200000DC200000BC200000C94030927
:1000C0000C9430090C945D090C948A090C94B709BE
:1000D0000C94E4090C94110A0C943E0A0C946B0ADB
:1000E0000C94980AF5C10000F3C10000F1C10000B2
:1000F000EFC10000EDC10000EBC10000E9C100004C
:10010000E7C10000E5C10000E3C10000E1C100005B
:10011000DFC10000DDC10000DBC10000D9C100006B
:10012000D7C10000D5C10000D3C10000D1C100007B
:10013000CFC10000A6C60000D1C60000FCC600006A
:1001400027C7000052C700007DC70000A8C70000F5
:10015000D3C70000FEC700000C94D608B9C1000048
:10016000B7C10000B5C10000B3C10000B1C10000BB
:10017000AFC10000ADC10000ABC10000A9C10000CB
:10018000A7C10000A5C10000A3C10000A1C10000DB
:100190009FC100009DC100009BC1000099C10000EB
:1001A00097C1000095C1000093C1000091C10000FB
:1001B0000C94C50A0C94F20A0C941F0B0C944C0B73
:1001C0000C94790B0C94A60B83C1000081C1000034
:1001D0007FC100007DC100007BC1000079C100002B
:1001E00077C1000075C1000073C1000071C100003B
:1001F0006FC100006DC100006BC100000000000075
:10020000000000202020202000205050500000003E
:10021000005050F850F850502078A07028F020C0BE
:10022000C810204098186090A040A89068602040B6
:10023000000000001020404040201040201010100E
:100240002040005020F8205000002020F8202000FE
:1002500000000000602040000000F80000000000E6
:10026000000000606000081020408000708898A89E
:10027000C8887020602020202070708808102040DE
:10028000F8F810201008887010305090F81010F80E
:1002900080F008088870304080F0888870F8081076
:1002A00020404040708888708888707088887808FE
:1002B00010600060600060600000606000602040CE
:1002C000081020402010080000F800F800008040CE
:1002D0002010204080708808102000207088086856
:1002E000A8A87070888888F88888F08888F088883E
:1002F000F070888080808870E09088888890E0F82E
:100300008080F08080F8F88080E080808070888035
:1003100080988870888888F88888887020202020B5
:100320002070381010101090608890A0C0A09088A5
:10033000808080808080F888D8A88888888888888D
:10034000C8A898888870888888888870F08888F01D
:1003500080808070888888A89068F08888F0A09055
:1003600088788080700808F0F820202020202088DD
:1003700088888888887088888888885020888888B5
:10038000A8A8D8888888502050888888885020203D
:100390002020F80810204080F83820202020203825
:1003A00000804020100800E02020202020E0205085
:1003B0008800000000000000000000F8402010004D
:1003C000000000000070087888788080B0C88888B5
:1003D000F00000708080887008086898888878002D
:1003E000007088F88070304840E04040400000785D
:1003F000887808308080B0C88888882000602020F5
:1004000020701000301010906040404850605048FC
:10041000602020202020700000D0A8A8888800003C
:10042000B0C8888888000070888888700000F088CC
:10043000F08080000068987808080000B0C88080CC
:1004400080000070807008F04040E040404830007C
:100450000088888898680000888888502000008874
:1004600088A8A8500000885020508800008888780C
:1004700008700000F8102040F810202040202010C4
:100480002020202020202040202010202040112447
:100490001FBECFEFCDBFDFE5DEBF00E00CBF10E237
:1004A000A0E0B0E2EEE4FEE200E00BBF02C0079085
:1004B0000D92A43BB107D9F722E2A4EBB0E201C050
:1004C0001D92AE3FB207E1F70E94DC120C94251793
:1004D00097CD04C0615071098109910961157105B9
:1004E00081059105B9F70895BF92CF92DF92EF92FF
:1004F000FF920F931F93CF93DF931F92CDB7DEB779
:1005000000E016E06894FF24F3F8F801F68264E056
:1005100070E080E090E0DDDFF801F58264E070E0FB
:1005200080E090E0D6DF0F2EFBE2BF2EF02DB982E7
:1005300080EA99E00E940810C12CD12C760100E4D9
:1005400012E42FE030E043E0BE016F5F7F4F80EAAE
:1005500099E00E94371000E616E0FF24F394F801BA
:10056000F682B982BE016F5F7F4F80EA99E00E94F8
:100570005110F801F682E0EAF9E0818185FFFDCFB4
:1005800080EA8093A009E0EAF9E0818186FFFDCF4F
:10059000E0EAF9E080E481838081BE016F5F7F4FF4
:1005A00080EA99E00E9467108BE28983BE016F5F49
:1005B0007F4F80EA99E00E94511081E080936606A7
:1005C000E0EAF9E0818185FFFDCF86EA8093A0090A
:1005D000E0EAF9E0818186FFFDCFE0EAF9E080E41E
:1005E00081838081BE016F5F7F4F80EA99E00E9426
:1005F00067108BE28983BE016F5F7F4F80EA99E0CD
:100600000E94511081E080936606E0EAF9E0818162
:1006100085FFFDCF88EC8093A009E0EAF9E08181B5
:1006200086FFFDCFE0EAF9E080E481838081BE01AE
:100630006F5F7F4F80EA99E00E9467108BE28983A9
:10064000BE016F5F7F4F80EA99E00E94511081E008
:1006500080936606E0EAF9E0818185FFFDCF82EABA
:100660008093A009E0EAF9E0818186FFFDCFE0EA0E
:10067000F9E080E481838081BE016F5F7F4F80EA73
:1006800099E00E9467108BE28983BE016F5F7F4F04
:1006900080EA99E00E94511081E080936606E0EACA
:1006A000F9E0818185FFFDCF8FE28093A009E0EA28
:1006B000F9E0818186FFFDCFE0EAF9E080E4818303
:1006C0008081BE016F5F7F4F80EA99E00E946710D2
:1006D0008BE28983BE016F5F7F4F80EA99E00E94C1
:1006E000511081E080936606E0EAF9E0818185FFA0
:1006F000FDCF88EF8093A009E0EAF9E0818186FFD1
:10070000FDCFE0EAF9E080E481838081BE016F5F84
:100710007F4F80EA99E00E9467108BE28983BE01D7
:100720006F5F7F4F80EA99E00E94511081E08093D3
:100730006606E0EAF9E0818185FFFDCF1092A0090D
:10074000E0EAF9E0818186FFFDCFE0EAF9E080E4AC
:1007500081838081BE016F5F7F4F80EA99E00E94B4
:1007600067108BE28983BE016F5F7F4F80EA99E05B
:100770000E94511081E080936606E0EAF9E08181F1
:1007800085FFFDCF81E28093A009E0EAF9E0818155
:1007900086FFFDCFE0EAF9E080E481838081BE013D
:1007A0006F5F7F4F80EA99E00E9467108BE2898338
:1007B000BE016F5F7F4F80EA99E00E94511081E097
:1007C00080936606E0EAF9E0818185FFFDCF81E84C
:1007D0008093A009E0EAF9E0818186FFFDCFE0EA9D
:1007E000F9E080E481838081BE016F5F7F4F80EA02
:1007F00099E00E9467108BE28983BE016F5F7F4F93
:1008000080EA99E00E94511081E080936606E0EA58
:10081000F9E0818185FFFDCF81E28093A009E0EAC4
:10082000F9E0818186FFFDCFE0EAF9E080E4818391
:100830008081BE016F5F7F4F80EA99E00E94671060
:100840008BE28983BE016F5F7F4F80EA99E00E944F
:10085000511081E080936606E0EAF9E0818185FF2E
:10086000FDCF8FEA8093A009E0EAF9E0818186FF5D
:10087000FDCFE0EAF9E080E481838081BE016F5F13
:100880007F4F80EA99E00E9467100F90DF91CF912F
:100890001F910F91FF90EF90DF90CF90BF90089540
:1008A000FF920F931F93CF93DF931F92CDB7DEB7C5
:1008B000082FF62E142F0E9482100F70006B8BE20F
:1008C0008983BE016F5F7F4F80EA99E00E945110DB
:1008D00081E080936606E0EAF9E0918195FFFDCF23
:1008E0000093A009E0EAF9E0818186FFFDCFE0EA0C
:1008F000F9E080E481838081BE016F5F7F4F80EAF1
:1009000099E00E9467100F2D0F7702950F7000611C
:100910008BE28983BE016F5F7F4F80EA99E00E947E
:10092000511081E080936606E0EAF9E0818185FF5D
:10093000FDCF0093A009E0EAF9E0818186FFFDCFB9
:10094000E0EAF9E080E481838081BE016F5F7F4F40
:1009500080EA99E00E9467100F2D0F708BE2898367
:10096000BE016F5F7F4F80EA99E00E94511081E0E5
:1009700080936606E0EAF9E0818185FFFDCF009370
:10098000A009E0EAF9E0818186FFFDCFE0EAF9E025
:1009900080E481838081BE016F5F7F4F80EA99E0B0
:1009A0000E9467108BE28983BE016F5F7F4F80EAF0
:1009B00099E00E94511081E080936506E0EAF9E039
:1009C000818185FFFDCF1093A009E0EAF9E08181E4
:1009D00086FFFDCFE0EAF9E080E48183808181E059
:1009E00080936606BE016F5F7F4F80EA99E00E94A8
:1009F00067100F90DF91CF911F910F91FF90089595
:100A00000F931F93CF93DF931F92CDB7DEB784EB85
:100A100090E20E947D1068DD8BE28983BE016F5FEA
:100A20007F4F80EA99E00E94511081E08093660632
:100A3000E0EAF9E0818185FFFDCF80E48093A009A1
:100A4000E0EAF9E0818186FFFDCFE0EAF9E080E4A9
:100A500081838081BE016F5F7F4F80EA99E00E94B1
:100A6000671000E00AC040E0612F802F19DF1F5F90
:100A70001038C9F70F5F043011F010E0F4CF0F9079
:100A8000DF91CF911F910F910895FF920F931F93C4
:100A9000CF93DF93882354F1603240F5D42FC82FD1
:100AA000F62EF694F694F69470E088E0F89E6019BD
:100AB0007109112481E090E08C0102C0000F111F28
:100AC0006A95E2F76C2F8F2D0E949010D13021F0A3
:100AD00028F0D23031F006C0802B04C0009580236E
:100AE00001C08027482F6C2F8F2DDADEDF91CF9148
:100AF0001F910F91FF9008950C94901008951F92EC
:100B00000F920FB60F9211240BB60F922F933F93B3
:100B10004F935F936F937F938F939F93AF93BF9305
:100B2000EF93FF93E091FA22F091FB22309709F0C6
:100B30001995FF91EF91BF91AF919F918F917F9107
:100B40006F915F914F913F912F910F900BBE0F903E
:100B50000FBE0F901F9018951F920F920FB60F9215
:100B600011240BB60F922F933F934F935F936F9384
:100B70007F938F939F93AF93BF93EF93FF93E091F6
:100B8000F822F091F922309709F01995FF91EF9131
:100B9000BF91AF919F918F917F916F915F914F9195
:100BA0003F912F910F900BBE0F900FBE0F901F9093
:100BB00018951F920F920FB60F9211240BB60F9239
:100BC0002F933F934F935F936F937F938F939F9355
:100BD000AF93BF93EF93FF93E091F622F091F7224A
:100BE000309709F01995FF91EF91BF91AF919F91C7
:100BF0008F917F916F915F914F913F912F910F90C6
:100C00000BBE0F900FBE0F901F9018951F920F9262
:100C10000FB60F9211240BB60F922F933F934F9361
:100C20005F936F937F938F939F93AF93BF93EF9354
:100C3000FF93E091F422F091F522309709F0199595
:100C4000FF91EF91BF91AF919F918F917F916F91A4
:100C50005F914F913F912F910F900BBE0F900FBE60
:100C60000F901F9018951F920F920FB60F9211249C
:100C70000BB60F922F933F934F935F936F937F9396
:100C80008F939F93AF93BF93EF93FF93E091F222E3
:100C9000F091F322309709F01995FF91EF91BF91F0
:100CA000AF919F918F917F916F915F914F913F9104
:100CB0002F910F900BBE0F900FBE0F901F901895A5
:100CC0001F920F920FB60F9211240BB60F922F9313
:100CD0003F934F935F936F937F938F939F93AF93C4
:100CE000BF93EF93FF93E091F022F091F1223097C0
:100CF00009F01995FF91EF91BF91AF919F918F915D
:100D00007F916F915F914F913F912F910F900BBE0B
:100D10000F900FBE0F901F9018951F920F920FB655
:100D20000F9211240BB60F922F933F934F935F9323
:100D30006F937F938F939F93AF93BF93EF93FF93A3
:100D4000E091EE22F091EF22309709F01995FF9192
:100D5000EF91BF91AF919F918F917F916F915F9133
:100D60004F913F912F910F900BBE0F900FBE0F90A0
:100D70001F9018951F920F920FB60F9211240BB669
:100D80000F922F933F934F935F936F937F938F9324
:100D90009F93AF93BF93EF93FF93E091EC22F09179
:100DA000ED22309709F01995FF91EF91BF91AF9126
:100DB0009F918F917F916F915F914F913F912F9173
:100DC0000F900BBE0F900FBE0F901F9018951F92A3
:100DD0000F920FB60F9211240BB60F922F933F93E1
:100DE0004F935F936F937F938F939F93AF93BF9333
:100DF000EF93FF93E091EA22F091EB22309709F014
:100E00001995FF91EF91BF91AF919F918F917F9134
:100E10006F915F914F913F912F910F900BBE0F906B
:100E20000FBE0F901F9018951F920F920FB60F9242
:100E300011240BB60F922F933F934F935F936F93B1
:100E40007F938F939F93AF93BF93EF93FF93E09123
:100E5000E822F091E922309709F01995FF91EF917E
:100E6000BF91AF919F918F917F916F915F914F91C2
:100E70003F912F910F900BBE0F900FBE0F901F90C0
:100E800018951F920F920FB60F9211240BB60F9266
:100E90002F933F934F935F936F937F938F939F9382
:100EA000AF93BF93EF93FF93E091E622F091E72297
:100EB000309709F01995FF91EF91BF91AF919F91F4
:100EC0008F917F916F915F914F913F912F910F90F3
:100ED0000BBE0F900FBE0F901F9018951F920F9290
:100EE0000FB60F9211240BB60F922F933F934F938F
:100EF0005F936F937F938F939F93AF93BF93EF9382
:100F0000FF93E091E422F091E522309709F01995E2
:100F1000FF91EF91BF91AF919F918F917F916F91D1
:100F20005F914F913F912F910F900BBE0F900FBE8D
:100F30000F901F9018951F920F920FB60F921124C9
:100F40000BB60F922F933F934F935F936F937F93C3
:100F50008F939F93AF93BF93EF93FF93E091E22220
:100F6000F091E322309709F01995FF91EF91BF912D
:100F7000AF919F918F917F916F915F914F913F9131
:100F80002F910F900BBE0F900FBE0F901F901895D2
:100F90001F920F920FB60F9211240BB60F922F9340
:100FA0003F934F935F936F937F938F939F93AF93F1
:100FB000BF93EF93FF93E091E022F091E12230970D
:100FC00009F01995FF91EF91BF91AF919F918F918A
:100FD0007F916F915F914F913F912F910F900BBE39
:100FE0000F900FBE0F901F9018951F920F920FB683
:100FF0000F9211240BB60F922F933F934F935F9351
:101000006F937F938F939F93AF93BF93EF93FF93D0
:10101000E091DE22F091DF22309709F01995FF91DF
:10102000EF91BF91AF919F918F917F916F915F9160
:101030004F913F912F910F900BBE0F900FBE0F90CD
:101040001F9018951F920F920FB60F9211240BB696
:101050000F922F933F934F935F936F937F938F9351
:101060009F93AF93BF93EF93FF93E091DC22F091B6
:10107000DD22309709F01995FF91EF91BF91AF9163
:101080009F918F917F916F915F914F913F912F91A0
:101090000F900BBE0F900FBE0F901F9018951F92D0
:1010A0000F920FB60F9211240BB60F922F933F930E
:1010B0004F935F936F937F938F939F93AF93BF9360
:1010C000EF93FF93E091DA22F091DB22309709F061
:1010D0001995FF91EF91BF91AF919F918F917F9162
:1010E0006F915F914F913F912F910F900BBE0F9099
:1010F0000FBE0F901F9018951F920F920FB60F9270
:1011000011240BB60F922F933F934F935F936F93DE
:101110007F938F939F93AF93BF93EF93FF93E09150
:10112000D822F091D922309709F01995FF91EF91CB
:10113000BF91AF919F918F917F916F915F914F91EF
:101140003F912F910F900BBE0F900FBE0F901F90ED
:1011500018951F920F920FB60F9211240BB60F9293
:101160002F933F934F935F936F937F938F939F93AF
:10117000AF93BF93EF93FF93E091D622F091D722E4
:10118000309709F01995FF91EF91BF91AF919F9121
:101190008F917F916F915F914F913F912F910F9020
:1011A0000BBE0F900FBE0F901F9018951F920F92BD
:1011B0000FB60F9211240BB60F922F933F934F93BC
:1011C0005F936F937F938F939F93AF93BF93EF93AF
:1011D000FF93E091D422F091D522309709F0199530
:1011E000FF91EF91BF91AF919F918F917F916F91FF
:1011F0005F914F913F912F910F900BBE0F900FBEBB
:101200000F901F9018951F920F920FB60F921124F6
:101210000BB60F922F933F934F935F936F937F93F0
:101220008F939F93AF93BF93EF93FF93E091D2225D
:10123000F091D322309709F01995FF91EF91BF916A
:10124000AF919F918F917F916F915F914F913F915E
:101250002F910F900BBE0F900FBE0F901F901895FF
:101260001F920F920FB60F9211240BB60F922F936D
:101270003F934F935F936F937F938F939F93AF931E
:10128000BF93EF93FF93E091D022F091D12230975A
:1012900009F01995FF91EF91BF91AF919F918F91B7
:1012A0007F916F915F914F913F912F910F900BBE66
:1012B0000F900FBE0F901F9018951F920F920FB6B0
:1012C0000F9211240BB60F922F933F934F935F937E
:1012D0006F937F938F939F93AF93BF93EF93FF93FE
:1012E000E091CE22F091CF22309709F01995FF912D
:1012F000EF91BF91AF919F918F917F916F915F918E
:101300004F913F912F910F900BBE0F900FBE0F90FA
:101310001F9018951F920F920FB60F9211240BB6C3
:101320000F922F933F934F935F936F937F938F937E
:101330009F93AF93BF93EF93FF93E091CC22F091F3
:10134000CD22309709F01995FF91EF91BF91AF91A0
:101350009F918F917F916F915F914F913F912F91CD
:101360000F900BBE0F900FBE0F901F9018951F92FD
:101370000F920FB60F9211240BB60F922F933F933B
:101380004F935F936F937F938F939F93AF93BF938D
:10139000EF93FF93E091CA22F091CB22309709F0AE
:1013A0001995FF91EF91BF91AF919F918F917F918F
:1013B0006F915F914F913F912F910F900BBE0F90C6
:1013C0000FBE0F901F9018951F920F920FB60F929D
:1013D00011240BB60F922F933F934F935F936F930C
:1013E0007F938F939F93AF93BF93EF93FF93E0917E
:1013F000C822F091C922309709F01995FF91EF9119
:10140000BF91AF919F918F917F916F915F914F911C
:101410003F912F910F900BBE0F900FBE0F901F901A
:1014200018951F920F920FB60F9211240BB60F92C0
:101430002F933F934F935F936F937F938F939F93DC
:10144000AF93BF93EF93FF93E091C622F091C72231
:10145000309709F01995FF91EF91BF91AF919F914E
:101460008F917F916F915F914F913F912F910F904D
:101470000BBE0F900FBE0F901F9018951F920F92EA
:101480000FB60F9211240BB60F922F933F934F93E9
:101490005F936F937F938F939F93AF93BF93EF93DC
:1014A000FF93E091C422F091C522309709F019957D
:1014B000FF91EF91BF91AF919F918F917F916F912C
:1014C0005F914F913F912F910F900BBE0F900FBEE8
:1014D0000F901F9018951F920F920FB60F92112424
:1014E0000BB60F922F933F934F935F936F937F931E
:1014F0008F939F93AF93BF93EF93FF93E091C2229B
:10150000F091C322309709F01995FF91EF91BF91A7
:10151000AF919F918F917F916F915F914F913F918B
:101520002F910F900BBE0F900FBE0F901F9018952C
:101530001F920F920FB60F9211240BB60F922F939A
:101540003F934F935F936F937F938F939F93AF934B
:10155000BF93EF93FF93E091C022F091C1223097A7
:1015600009F01995FF91EF91BF91AF919F918F91E4
:101570007F916F915F914F913F912F910F900BBE93
:101580000F900FBE0F901F9018951F920F920FB6DD
:101590000F9211240BB60F922F933F934F935F93AB
:1015A0006F937F938F939F93AF93BF93EF93FF932B
:1015B000E091BE22F091BF22309709F01995FF917A
:1015C000EF91BF91AF919F918F917F916F915F91BB
:1015D0004F913F912F910F900BBE0F900FBE0F9028
:1015E0001F9018951F920F920FB60F9211240BB6F1
:1015F0000F922F933F934F935F936F937F938F93AC
:101600009F93AF93BF93EF93FF93E091BC22F09130
:10161000BD22309709F01995FF91EF91BF91AF91DD
:101620009F918F917F916F915F914F913F912F91FA
:101630000F900BBE0F900FBE0F901F9018951F922A
:101640000F920FB60F9211240BB60F922F933F9368
:101650004F935F936F937F938F939F93AF93BF93BA
:10166000EF93FF93E091BA22F091BB22309709F0FB
:101670001995FF91EF91BF91AF919F918F917F91BC
:101680006F915F914F913F912F910F900BBE0F90F3
:101690000FBE0F901F9018951F920F920FB60F92CA
:1016A00011240BB60F922F933F934F935F936F9339
:1016B0007F938F939F93AF93BF93EF93FF93E091AB
:1016C000B822F091B922309709F01995FF91EF9166
:1016D000BF91AF919F918F917F916F915F914F914A
:1016E0003F912F910F900BBE0F900FBE0F901F9048
:1016F00018951F920F920FB60F9211240BB60F92EE
:101700002F933F934F935F936F937F938F939F9309
:10171000AF93BF93EF93FF93E091B622F091B7227E
:10172000309709F01995FF91EF91BF91AF919F917B
:101730008F917F916F915F914F913F912F910F907A
:101740000BBE0F900FBE0F901F9018951F920F9217
:101750000FB60F9211240BB60F922F933F934F9316
:101760005F936F937F938F939F93AF93BF93EF9309
:10177000FF93E091B422F091B522309709F01995CA
:10178000FF91EF91BF91AF919F918F917F916F9159
:101790005F914F913F912F910F900BBE0F900FBE15
:1017A0000F901F9018954F925F926F927F928F9239
:1017B0009F92AF92BF92EF92FF920F931F93CF939E
:1017C0007C014A015B0128013901FC01848182FF0F
:1017D00016C0D901C801689412F8B695A7959795D7
:1017E00087951694D1F7B901A801032E36E17695B5
:1017F0006795579547953A95D1F7302D15C0D90182
:10180000C801689413F8B695A7959795879516948F
:10181000D1F7B901A801032E37E176956795579561
:1018200047953A95D1F7302D88159905AA05BB053E
:1018300008F4A2C084169506A606B70608F49EC052
:10184000F701848182FD04C0880C991CAA1CBB1C72
:10185000C301B201A5019401F9D72F3F310541051C
:10186000510508F48DC08FEF90E0A0E0B0E0C9EF23
:1018700005C0281739074A075B0758F0880F991FDA
:10188000AA1FBB1FCD3F0CF48160CF5FC73089F723
:101890004DC0CC230CF04AC0D501C401880F991F5C
:1018A000AA1FBB1F880F991FAA1FBB1F880F991F54
:1018B000AA1FBB1F481A590A6A0A7B0ACE3FECF4DA
:1018C0008DEF9FEF8C1B9109C7FD939504C0440CCD
:1018D000551C661C771C8A95D2F7D501C401B695B4
:1018E000A79597958795BC01CD01640D751D861D43
:1018F000971DA5019401AAD735C083E08C0FA501DF
:10190000940104C0220F331F441F551F8A95D2F73C
:10191000DA01C901B695A79597958795BC01CD01C8
:10192000640D751D861D971D91D71CC083E08C0F1B
:10193000A501940104C0220F331F441F551F8A952F
:10194000D2F7DA01C901B695A79597958795BC019D
:10195000CD01640D751D861D971D78D72150310965
:1019600041095109832F8F70C295C07FC82BF701A1
:10197000C783268381E018C080E016C080E014C0D1
:10198000D501C401880F991FAA1FBB1F880F991F7B
:10199000AA1FBB1F880F991FAA1FBB1F481A590AED
:1019A0006A0A7B0AC9EF8CCFCF911F910F91FF90EC
:1019B000EF90BF90AF909F908F907F906F905F90CF
:1019C0004F9008950F931F93CF93DF93EC018B01FA
:1019D000009709F4E6C0803C910521F460E180E0C5
:1019E0003FD4DFC0C03881E0D80721F462E080E056
:1019F00037D4D7C0C115E1E0DE0721F461E080E013
:101A00002FD4CFC0C038F3E0DF0721F461E081E0DC
:101A100027D4C7C0C03983E0D80721F461E082E051
:101A20001FD4BFC0C115E2E0DE0721F462E081E00F
:101A300017D4B7C0C034F2E0DF0721F462E082E0DF
:101A40000FD4AFC0C03283E0D80721F464E082E055
:101A500007D4A7C0C115E8E0DE0721F461E083E008
:101A6000FFD39FC0C115F9E0DF0721F461E084E0F6
:101A7000F7D397C0C1158AE0D80721F461E085E06B
:101A8000EFD38FC0C115EBE0DE0721F461E086E003
:101A9000E7D387C0C034F8E0DF0721F462E083E0D9
:101AA000DFD37FC0C03489E0D80721F462E084E04E
:101AB000D7D377C0C034EAE0DE0721F462E085E0E6
:101AC000CFD36FC0C039F8E0DF0721F464E083E0D2
:101AD000C7D367C0C03989E0D80721F464E084E047
:101AE000BFD35FC0C039EAE0DE0721F464E085E0DF
:101AF000B7D357C0C039FBE0DF0721F464E086E0CC
:101B0000AFD34FC0C03C88E0D80721F468E083E041
:101B1000A7D347C0C03CE9E0DE0721F468E084E0D9
:101B20009FD33FC0C03AF8E0DF0721F460E183E0D3
:101B300097D337C0C03A89E0D80721F460E184E048
:101B40008FD32FC0C03AEAE0DE0721F460E185E0E0
:101B500087D327C0C03AFBE0DF0721F460E186E0CD
:101B60007FD31FC0C03B88E0D80721F460E283E048
:101B700077D317C0C03BE9E0DE0721F460E284E0E0
:101B80006FD30FC0C038F4E0DF0721F460E483E0D6
:101B900067D307C0C03A84E0D80719F460E485E051
:101BA0005FD38D818F738D83F80195818481892B1B
:101BB0009681911198E0892B8D83F80140815181A4
:101BC0006281738100E814E82EE130E0CE01EBDDA4
:101BD0009C8198609C839C8190619C83DF91CF91D4
:101BE0001F910F910895CF92DF92EF92FF920F9382
:101BF0001F93CF93DF93EC01D901C801B695A79548
:101C000097958795481759076A077B0770F46A010B
:101C10007B01CC0CDD1CEE1CFF1CC901B801A70127
:101C2000960114D62150310902C020E030E0832F04
:101C30008F708F832E83DF91CF911F910F91FF9033
:101C4000EF90DF90CF900895DF92EF92FF920F9385
:101C50001F93CF93DF931F92CDB7DEB77C018B012B
:101C6000009709F4B2C1803C910521F460E180E065
:101C7000F7D2ABC180E8E81681E0F80621F462E013
:101C800080E0EED2A2C1E114E1E0FE0621F461E0C1
:101C900080E0E6D29AC1F0E8EF16F3E0FF0621F407
:101CA00061E081E0DDD291C130E9E31633E0F30673
:101CB00021F461E082E0D4D288C1E11482E0F80628
:101CC00021F462E081E0CCD280C1E0E4EE16E2E0F3
:101CD000FE0621F462E082E0C3D277C1F0E2EF16A3
:101CE000F3E0FF0621F464E082E0BAD26EC1E114B1
:101CF00038E0F30621F461E083E0B2D266C1E1147A
:101D000089E0F80621F461E084E0AAD25EC1E11422
:101D1000EAE0FE0621F461E085E0A2D256C1E114BA
:101D2000FBE0FF0621F461E086E09AD24EC130E488
:101D3000E31638E0F30621F462E083E091D245C176
:101D400080E4E81689E0F80621F462E084E088D2B5
:101D50003CC1E0E4EE16EAE0FE0621F462E085E034
:101D60007FD233C1F0E9EF16F8E0FF0621F464E01A
:101D700083E076D22AC130E9E31639E0F30621F494
:101D800064E084E06DD221C180E9E8168AE0F806BB
:101D900021F464E085E064D218C1E0E9EE16EBE0DE
:101DA000FE0621F464E086E05BD20FC1F0ECEF1692
:101DB000F8E0FF0621F468E083E052D206C130EC7F
:101DC000E31639E0F30621F468E084E049D2FDC06F
:101DD00080EAE81688E0F80661F460E183E040D22A
:101DE000E0EAF8E084818F7E8483F8012481225028
:101DF0004CC0F0EAEF16F9E0FF0621F460E184E060
:101E00002FD2E3C030EAE3163AE0F30621F460E1B2
:101E100085E026D2DAC080EAE8168BE0F80621F4E5
:101E200060E186E01DD2D1C0E0EBEE16E8E0FE06F0
:101E300021F460E283E014D2C8C0F0EBEF16F9E0C1
:101E4000FF0621F460E284E00BD2BFC030E8E31665
:101E500034E0F30621F460E483E002D2B6C080EA05
:101E6000E81684E0F80621F460E485E0F9D1ADC01D
:101E7000F70184818F7E8483FB0124812250C70176
:101E8000F0EAEF16F8E0FF0649F480914E0684FD73
:101E9000A5C00F2EF1E1DF2EF02DA4C0803B38E06D
:101EA000930791F0803AE9E09E0749F430916E067D
:101EB00034FD9BC00F2EF9E1DF2EF02D16C0803BC4
:101EC000F9E09F07F1F004C00F2EF5E1DF2EF02DB1
:101ED000803A3AE0930749F480918E0684FD8AC0E7
:101EE0000F2EF1E2DF2EF02D15C0803A9B4091F4C9
:101EF0008091AE0684FD0AC00F2EF9E2DF2EF02D90
:101F000009C00F2EFDE1DF2EF02D04C00F2EFDE2E3
:101F1000DF2EF02DED2DE695E695E69530E2E39F78
:101F2000F0011124FA5F3D2D377081E090E0032E1F
:101F300002C0880F991F0A94E2F78183223010F0C3
:101F400040E001C040E4DF015096A30FB11D9FB7F0
:101F50009983F89439812C9127702C939C91942B20
:101F60009C933FBF8583F7018581806C8583F80151
:101F700084818D7F813029F4F7018581826085839A
:101F800004C0F70185818D7F8583F80185818823D1
:101F900029F0F70185818460858304C0F70185817C
:101FA0008B7F8583F801408151816281738100E8D4
:101FB00014E82EE130E0C70116DEF7018481886065
:101FC00084838481806184831AC0F70184818F7E39
:101FD0008483F80124812250C70160CF0F2EF5E1E0
:101FE000DF2EF02D80EA98E06ACF0F2EFDE1DF2E84
:101FF000F02D7BCF0F2EF5E2DF2EF02D8BCF0F9043
:10200000DF91CF911F910F91FF90EF90DF90089596
:10201000803A28E0920721F460E183E021C108952D
:10202000803B28E0920721F460E283E019C1089523
:10203000803A29E0920721F460E184E011C108951B
:10204000803B29E0920721F460E284E009C1089511
:10205000803A2AE0920721F460E185E001C1089509
:10206000803A9B4019F460E186E0FAC008950F932E
:102070001F93CF93DF9300D000D0CDB7DEB7098395
:102080001A832B833C834D831E82BE016F5F7F4F7B
:10209000DBDD2696CDBFDEBFDF91CF911F910F9183
:1020A0000895FB018081E82FE695E695E69540E2EC
:1020B000E49FF0011124FA5F877021E030E0A9016C
:1020C00002C0440F551F8A95E2F746830895FB012D
:1020D0008081E82FE695E695E69540E2E49FF001E1
:1020E0001124FA5F877021E030E0A90102C0440F9B
:1020F000551F8A95E2F7458308958093FC229093BB
:10210000FD2208952091FC223091FD2290E8899FC4
:10211000200D311D1124F901E60FF11D40830895B2
:102120002091FC223091FD2290E8899F200D311DE5
:102130001124F901E60FF11D80810895FF920F939C
:102140001F93CF93DF93E42FF0E0E80FF11DE13808
:10215000F1051CF0C0E84C2F481B442309F450C083
:10216000D62FD695D695D69570E098E0D99F601970
:1021700071091124E1E0F0E0DF0102C0AA0FBB1FEA
:102180006A95E2F7FA2E213021F0A8F0223039F1D9
:1021900037C0C42F1FEF180F012F0C0F602F8D2F8A
:1021A0000E947C054F2D482B602F8D2F0E945004DC
:1021B000C15091F725C0C42F1FEF180FFA2EF094CD
:1021C000012F0C0F602F8D2F0E947C054F2D48236F
:1021D000602F8D2F0E945004C15091F711C0C42F61
:1021E0001FEF180F012F0C0F602F8D2F0E947C0501
:1021F0004F2D4827602F8D2F0E945004C15091F71A
:10220000DF91CF911F910F91FF900895FF920F934F
:102210001F93CF93DF93222369F0F42E182FC22F40
:10222000DFEFD60F6D2F6C0F202F4F2D812F86DF04
:10223000C150C1F7DF91CF911F910F91FF90089589
:102240008FEF809370008093710080937200809371
:1022500073008093740080937500809376000895D6
:10226000CF93DF931F92CDB7DEB79FB79983F894D2
:102270009981E82FF0E0E059FF4F60958081682355
:1022800060839FBF0F90DF91CF910895AF92BF926F
:10229000CF92DF92EF92FF920F931F93CF93DF9332
:1022A000C82FE62EB42E690100E0F9012481438194
:1022B0006B2D8E2DABDFF601808181113AC08381B9
:1022C000282F269526952695877009F02F5FF60111
:1022D000A4808C2F90E03581831B91092A9D900169
:1022E0001124829FA001839F500D929F500D1124B5
:1022F00001811281040F151FF601F380FF20A9F060
:10230000D0E0C0E08E2D8C0F9C2F977021F4F80147
:10231000D4910F5F1F4FDD2324F441E06B2D0E9409
:102320004505DD0FCF5FFC12EDCFB394AA94A11049
:10233000E3CFDF91CF911F910F91FF90EF90DF904E
:10234000CF90BF90AF900895DF92EF92FF920F93DE
:102350001F93CF93DF93D62E042F7901EC01162F14
:1023600089918A3031F4F70184818F5F080F1D2D28
:1023700009C08D3039F09701402F612F87DFF701B9
:102380008381180F88818111EBCFDF91CF911F914D
:102390000F91FF90EF90DF900895CF93DF93FC01B2
:1023A00020E030E0C62FD0E0DE01022E02C0B5955D
:1023B000A7950A94E2F7A0FD508B2F5F3F4F31960F
:1023C0002830310589F740FF0AC041FF03C0FC01F6
:1023D000658302C0FC016683FC01618302C0FC01CD
:1023E0006283DF91CF91089543E050E061E080EE99
:1023F00097E0D3DF43E050E062E080EE97E0CDDF8E
:1024000043E050E060E180E696E0C7DF41E050E461
:1024100060E280E696E0C1DF40E05BE160E280E8F8
:1024200096E0BBDF40E05BE162E080EA96E0B5DF8A
:1024300040E05BE164E080EA96E0AFDF43E050E03B
:1024400062E080E696E0A9DF43E050E068E080E6E5
:1024500096E0A3DF43E050E068E080EA96E09DDF8D
:1024600043E050E061E080E696E097DF43E050E033
:1024700068E080E096E091DF41E050E060E180E8D4
:1024800096E08BDF43E050E062E080E696E085DF97
:1024900043E050E068E080E696E07FDF40E050E017
:1024A00064E080E696E079DF43E050E060E180EAB6
:1024B00096E073DF40E050E061E080E096E06DDFA1
:1024C00040E050E064E080E096E067DF40E050E00C
:1024D00062E080E296E061DF43E050E068E080E4A3
:1024E00096E05BDF40E050E064E080E496E055DF9A
:1024F00043E050E068E080E696E04FDF40E050E0E7
:1025000064E080E696E049DF43E050E068E080E880
:1025100096E043DF40E050E064E080E896E03DCFA5
:10252000089504C06150710981099109611571050F
:1025300081059105B9F70895CF93DF93FC012081C0
:10254000222369F0DC011196E1EAF8E0C0EAD8E064
:10255000908195FFFDCF28832D912111F9CFDF9137
:10256000CF9108951092A7088CE08093A60810924E
:10257000A30883E08093A50888E18093A4080895C8
:1025800033DF5EDE0E940005789480E1809385064B
:1025900088E0809345068093410684E08093460658
:1025A00080934206DFDF67E070E280EA98E00ADAB3
:1025B00081E0809321060895CF93DF93CDB7DEB7F6
:1025C000C552D041CDBFDEBF3BDE0EDF0E9400050D
:1025D000F89480E18093850684E08093420688E049
:1025E000809341068CE08093A6081092A70883E0B0
:1025F0008093A50888E18093A4088EE090E29CDF98
:1026000020E030E248E060E08EE190E29DDEB8DF5D
:10261000CE5DDF4E18821982C252D0410F2EF1EAF0
:10262000EF2EF8E0FF2EF02D9E012F5F3F4F390176
:102630000F2EF6E64F2EF0E25F2EF02D6894332435
:1026400035F86E013FEFC31A3FEED30A2C2CCF5D55
:10265000DF4ED882C152D041CC5DDF4E6882C45279
:10266000D041CB5DDF4E7882C552D041812C912C78
:1026700000E010E0A12CB12CF7018081882334F018
:1026800081E390E0F701208122234CF4E0EAF8E0B6
:102690002081822F90E01816190634F093C001971C
:1026A00089F78FEF9FEF8EC0FFEF8F1A9F0A2A30B6
:1026B00009F07AC0F301EA0DFB1D10829F928F9200
:1026C0008CE290E29F938F931F923F92DF92CF9282
:1026D000DFD020E030E248E060E0822DCF5DDF4EC9
:1026E0009881C152D04130DE00E0232D40E860E007
:1026F00080E08CDD20E030E240E060E084E490E2C5
:1027000023DE20E030E248E060E0CC5DDF4E8881EF
:10271000C452D041CB5DDF4E9881C552D04114DE0A
:10272000CE5DDF4E08811981C252D0410F5F1F4F2D
:10273000CD5DDF4E2881C352D0412F93CE5DDF4E59
:102740003881C252D0413F9382E590E29F938F93AC
:102750001F923F92DF92CF929BD0822DCF5DDF4EB2
:102760009881C152D041E8DE20E030E240E160E0F3
:102770008FE590E2E9DD20E030E248E160E0822D83
:10278000CF5DDF4E9881C152D041DEDD66E07DE055
:1027900080E090E0C6DECDBFDEBFCE5DDF4E0883B9
:1027A0001983C252D04162CFEFEFAE16EFE0BE0602
:1027B0006CF5F301EA0DFB1D208395012F5F3F4F60
:1027C000590124C00E5C1F4F043F31E013070CF584
:1027D0001F930F939F938F93082E000C990B9F9339
:1027E0008F935F924F921F923F92DF92CF9250D081
:1027F00020E030E240E060E0822DCF5DDF4E988146
:10280000C152D041A1DDCDBFDEBF36CF00E010E028
:10281000DFCF20E030E240E160E085E790E294DD48
:1028200082E890E289DE00E0232D40E860E080E06D
:10283000EDDC20E030E240E060E08DE990E284DD14
:1028400066E176E185E090E06CDE10CFA1E21A2E21
:10285000AA1BBB1BFD010DC0AA1FBB1FEE1FFF1F44
:10286000A217B307E407F50720F0A21BB30BE40B94
:10287000F50B661F771F881F991F1A9469F76095DB
:102880007095809590959B01AC01BD01CF01089595
:102890000F931F93CF93DF93CDB7DEB72E97CDBFA6
:1028A000DEBF0E891F89888D998D26E02C830983D0
:1028B0001A8397FF02C080E090E801978D839E8382
:1028C000AE01445E5F4F6A8D7B8DCE01019616D0BE
:1028D0004D815E8157FD0AC02F813885421753070D
:1028E0000CF49A01F801E20FF31F10822E96CDBF6F
:1028F000DEBFDF91CF911F910F9108952F923F92EC
:102900004F925F926F927F928F929F92AF92BF92FF
:10291000CF92DF92EF92FF920F931F93CF93DF93AB
:10292000CDB7DEB72B97CDBFDEBF6C017B018A012F
:10293000FC0116821782838181FFBFC1CE010196FF
:102940003C01F6019381F70193FD859193FF8191FD
:102950007F01882309F4ADC1853239F493FD859157
:1029600093FF81917F01853221F4B60190E0D3D1AC
:10297000E8CF912C212C312CFFE1F315D8F08B32CC
:1029800079F038F4803279F08332A1F4232D20617C
:102990001DC08D3261F0803369F4232D216016C093
:1029A000832D8260382EE32DE4603E2E2AC0F32D65
:1029B000F8601DC037FC2DC020ED280F2A3040F0F4
:1029C0008E32B9F436FC75C1232D2064322E19C025
:1029D00036FE06C08AE0989E200D1124922E11C06A
:1029E000EAE02E9E200D1124222EF32DF0623F2EC0
:1029F00008C08C3621F4832D8068382E02C08836BA
:102A000041F4F70193FD859193FF81917F0181113D
:102A1000B3CF982F9F7D9554933028F40C5F1F4FB0
:102A20009FE399830DC0833631F0833771F083358E
:102A300009F055C020C0F801808189830E5F1F4FC7
:102A400088248394912C530112C02801F2E04F0E88
:102A5000511CF801A080B18036FE03C0692D70E0E2
:102A600002C06FEF7FEFC5014BD14C018201F32D06
:102A7000FF773F2E15C0280122E0420E511CF801BD
:102A8000A080B18036FE03C0692D70E002C06FEFF8
:102A90007FEFC5012AD14C01F32DF0683F2E820152
:102AA00033FC19C0822D90E088169906A0F4B60177
:102AB00080E290E030D12A94F5CFF50137FC859182
:102AC00037FE81915F01B60190E025D121102A9453
:102AD00021E0821A91088114910479F7E1C08436CB
:102AE00011F0893639F5F80137FE07C06081718130
:102AF000828193810C5F1F4F08C060817181072E16
:102B0000000C880B990B0E5F1F4FF32DFF763F2EA5
:102B100097FF09C090958095709561957F4F8F4F75
:102B20009F4FF0683F2E2AE030E0A30130D1882E7D
:102B3000861844C0853731F4232D2F7EB22E2AE02B
:102B400030E025C0932D997FB92E8F36C1F018F44F
:102B5000883579F0AEC0803719F0883721F0A9C0E8
:102B6000E92FE061BE2EB4FE0DC0FB2DF460BF2E38
:102B700009C034FE0AC0292F2660B22E06C028E004
:102B800030E005C020E130E002C020E132E0F80191
:102B9000B7FE07C060817181828193810C5F1F4FF6
:102BA00006C06081718180E090E00E5F1F4FA3013D
:102BB000EED0882E8618FB2DFF773F2E36FE0DC0F7
:102BC000232D2E7FA22E891458F434FE0BC032FC24
:102BD00009C0832D8E7EA82E05C0B82CA32C03C05F
:102BE000B82C01C0B92CA4FE0FC0FE01E80DF11DE8
:102BF0008081803321F49A2D997EA92E09C0A2FEEE
:102C000006C0B394B39404C08A2D867809F0B394B7
:102C1000A3FC10C0A0FE06C0B21480F4280C922CB5
:102C20009B180DC0B21458F4B60180E290E073D046
:102C3000B394F8CFB21418F42B1802C0982C212C9E
:102C4000A4FE0FC0B60180E390E065D0A2FE16C0DE
:102C5000A1FC03C088E790E002C088E590E0B601DF
:102C60000CC08A2D867851F0A1FE02C08BE201C013
:102C700080E2A7FC8DE2B60190E04DD0891430F4DB
:102C8000B60180E390E047D09A94F8CF8A94F3019C
:102C9000E80DF11D8081B60190E03DD08110F6CFA6
:102CA000222009F44ECEB60180E290E034D02A947E
:102CB000F7CFF6018681978102C08FEF9FEF2B96A9
:102CC000CDBFDEBFDF91CF911F910F91FF90EF90AD
:102CD000DF90CF90BF90AF909F908F907F906F903C
:102CE0005F904F903F902F900895FC0105906150A8
:102CF00070400110D8F7809590958E0F9F1F089512
:102D0000FC016150704001900110D8F780959095BA
:102D10008E0F9F1F08950F931F93CF93DF93FB0197
:102D2000238121FD03C08FEF9FEF2CC022FF16C02F
:102D300046815781248135814217530744F4A0818D
:102D4000B1819D012F5F3F4F208331838C9326817A
:102D500037812F5F3F4F2683378314C08B01EC01EF
:102D6000FB010084F185E02D1995892BE1F6D8014E
:102D700016968D919C911797019616968D939C931C
:102D80001797CE01DF91CF911F910F910895FA010E
:102D9000AA27283051F1203181F1E8946F936E7F9A
:102DA0006E5F7F4F8F4F9F4FAF4FB1E03ED0B4E08B
:102DB0003CD0670F781F891F9A1FA11D680F791FCC
:102DC0008A1F911DA11D6A0F711D811D911DA11DDD
:102DD00020D009F468943F912AE0269F11243019ED
:102DE000305D3193DEF6CF010895462F4770405D88
:102DF0004193B3E00FD0C9F7F6CF462F4F70405D37
:102E00004A3318F0495D31FD4052419302D0A9F791
:102E1000EACFB4E0A6959795879577956795BA958B
:102E2000C9F700976105710508959B01AC010A2E51
:102E300006945795479537952795BA95C9F7620F28
:0E2E4000731F841F951FA01D0895F894FFCFE7
:102E4E0000FC010607207D80250000030000584D80
:102E5E0045474120537461727465642E0A00646F95
:102E6E006E652073656E64696E67210062726561BE
:102E7E006B205C6E20616674657220256420636829
:102E8E006172730046726F6D2041726475696E6F68
:102E9E003A002E2E584D4547413A2025750A0052CC
:102EAE0065706C793A00636861723A20256320255B
:102EBE0064202564004E676972696D204441544157
:102ECE002100543A323520483A323020513A3120DE
:102EDE00573A3120463A3020423A300A004E6F209F
:102EEE00646174612066726F6D2041726475696EE3
:042EFE006F21000040
:00000001FF
